{
  "_format": "hh-sol-artifact-1",
  "contractName": "TournamentScores",
  "sourceName": "contracts/TournamentScores.sol",
  "abi": [
    {
      "inputs": [],
      "name": "getAllTournamentIds",
      "outputs": [
        {
          "internalType": "uint256[]",
          "name": "",
          "type": "uint256[]"
        }
      ],
      "stateMutability": "view",
      "type": "function"
    },
    {
      "inputs": [
        {
          "internalType": "uint256",
          "name": "_tournamentId",
          "type": "uint256"
        }
      ],
      "name": "getScores",
      "outputs": [
        {
          "components": [
            {
              "internalType": "uint256",
              "name": "tournamentId",
              "type": "uint256"
            },
            {
              "internalType": "uint256",
              "name": "winnerId",
              "type": "uint256"
            },
            {
              "internalType": "uint256",
              "name": "winnerIdScore",
              "type": "uint256"
            },
            {
              "internalType": "uint256",
              "name": "loserId",
              "type": "uint256"
            },
            {
              "internalType": "uint256",
              "name": "loserIdScore",
              "type": "uint256"
            }
          ],
          "internalType": "struct TournamentScores.Score[]",
          "name": "",
          "type": "tuple[]"
        }
      ],
      "stateMutability": "view",
      "type": "function"
    },
    {
      "inputs": [
        {
          "internalType": "uint256",
          "name": "_tournamentId",
          "type": "uint256"
        },
        {
          "internalType": "uint256",
          "name": "_winnerId",
          "type": "uint256"
        },
        {
          "internalType": "uint256",
          "name": "_winnerIdScore",
          "type": "uint256"
        },
        {
          "internalType": "uint256",
          "name": "_loserId",
          "type": "uint256"
        },
        {
          "internalType": "uint256",
          "name": "_loserIdScore",
          "type": "uint256"
        }
      ],
      "name": "storeScore",
      "outputs": [],
      "stateMutability": "nonpayable",
      "type": "function"
    },
    {
      "inputs": [
        {
          "internalType": "uint256",
          "name": "",
          "type": "uint256"
        }
      ],
      "name": "tournamentIds",
      "outputs": [
        {
          "internalType": "uint256",
          "name": "",
          "type": "uint256"
        }
      ],
      "stateMutability": "view",
      "type": "function"
    },
    {
      "inputs": [
        {
          "internalType": "uint256",
          "name": "",
          "type": "uint256"
        },
        {
          "internalType": "uint256",
          "name": "",
          "type": "uint256"
        }
      ],
      "name": "tournamentScores",
      "outputs": [
        {
          "internalType": "uint256",
          "name": "tournamentId",
          "type": "uint256"
        },
        {
          "internalType": "uint256",
          "name": "winnerId",
          "type": "uint256"
        },
        {
          "internalType": "uint256",
          "name": "winnerIdScore",
          "type": "uint256"
        },
        {
          "internalType": "uint256",
          "name": "loserId",
          "type": "uint256"
        },
        {
          "internalType": "uint256",
          "name": "loserIdScore",
          "type": "uint256"
        }
      ],
      "stateMutability": "view",
      "type": "function"
    }
  ],
  "bytecode": "0x608060405234801561001057600080fd5b5061076f806100206000396000f3fe608060405234801561001057600080fd5b50600436106100575760003560e01c806304527d901461005c57806349524aad1461008c57806396283419146100bc578063a372f775146100f0578063fe8195ce1461010e575b600080fd5b610076600480360381019061007191906103bb565b61012a565b604051610083919061050e565b60405180910390f35b6100a660048036038101906100a191906103bb565b6101cd565b6040516100b3919061053f565b60405180910390f35b6100d660048036038101906100d1919061055a565b6101f1565b6040516100e795949392919061059a565b60405180910390f35b6100f8610244565b604051610105919061069c565b60405180910390f35b610128600480360381019061012391906106be565b61029c565b005b6060600080838152602001908152602001600020805480602002602001604051908101604052809291908181526020016000905b828210156101c257838290600052602060002090600502016040518060a0016040529081600082015481526020016001820154815260200160028201548152602001600382015481526020016004820154815250508152602001906001019061015e565b505050509050919050565b600181815481106101dd57600080fd5b906000526020600020016000915090505481565b6000602052816000526040600020818154811061020d57600080fd5b9060005260206000209060050201600091509150508060000154908060010154908060020154908060030154908060040154905085565b6060600180548060200260200160405190810160405280929190818152602001828054801561029257602002820191906000526020600020905b81548152602001906001019080831161027e575b5050505050905090565b600080600087815260200190815260200160002080549050036102e35760018590806001815401808255809150506001900390600052602060002001600090919091909150555b6000808681526020019081526020016000206040518060a00160405280878152602001868152602001858152602001848152602001838152509080600181540180825580915050600190039060005260206000209060050201600090919091909150600082015181600001556020820151816001015560408201518160020155606082015181600301556080820151816004015550505050505050565b600080fd5b6000819050919050565b61039881610385565b81146103a357600080fd5b50565b6000813590506103b58161038f565b92915050565b6000602082840312156103d1576103d0610380565b5b60006103df848285016103a6565b91505092915050565b600081519050919050565b600082825260208201905092915050565b6000819050602082019050919050565b61041d81610385565b82525050565b60a0820160008201516104396000850182610414565b50602082015161044c6020850182610414565b50604082015161045f6040850182610414565b5060608201516104726060850182610414565b5060808201516104856080850182610414565b50505050565b60006104978383610423565b60a08301905092915050565b6000602082019050919050565b60006104bb826103e8565b6104c581856103f3565b93506104d083610404565b8060005b838110156105015781516104e8888261048b565b97506104f3836104a3565b9250506001810190506104d4565b5085935050505092915050565b6000602082019050818103600083015261052881846104b0565b905092915050565b61053981610385565b82525050565b60006020820190506105546000830184610530565b92915050565b6000806040838503121561057157610570610380565b5b600061057f858286016103a6565b9250506020610590858286016103a6565b9150509250929050565b600060a0820190506105af6000830188610530565b6105bc6020830187610530565b6105c96040830186610530565b6105d66060830185610530565b6105e36080830184610530565b9695505050505050565b600081519050919050565b600082825260208201905092915050565b6000819050602082019050919050565b60006106258383610414565b60208301905092915050565b6000602082019050919050565b6000610649826105ed565b61065381856105f8565b935061065e83610609565b8060005b8381101561068f5781516106768882610619565b975061068183610631565b925050600181019050610662565b5085935050505092915050565b600060208201905081810360008301526106b6818461063e565b905092915050565b600080600080600060a086880312156106da576106d9610380565b5b60006106e8888289016103a6565b95505060206106f9888289016103a6565b945050604061070a888289016103a6565b935050606061071b888289016103a6565b925050608061072c888289016103a6565b915050929550929590935056fea2646970667358221220874612536fdf2d70c682a40b672474976becace08d53b8720bfb36e6e9320abd64736f6c63430008180033",
  "linkReferences": {},
  "deployedLinkReferences": {}
}