{
  "_format": "hh-sol-artifact-1",
  "contractName": "TournamentScores",
  "sourceName": "contracts/TournamentScores.sol",
  "abi": [
    {
      "inputs": [
        {
          "internalType": "uint256",
          "name": "_tournamentId",
          "type": "uint256"
        }
      ],
      "name": "getScores",
      "outputs": [
        {
          "components": [
            {
              "internalType": "uint256",
              "name": "tournamentId",
              "type": "uint256"
            },
            {
              "internalType": "uint256",
              "name": "winnerId",
              "type": "uint256"
            },
            {
              "internalType": "uint256",
              "name": "winnerIdScore",
              "type": "uint256"
            },
            {
              "internalType": "uint256",
              "name": "loserId",
              "type": "uint256"
            },
            {
              "internalType": "uint256",
              "name": "loserIdScore",
              "type": "uint256"
            }
          ],
          "internalType": "struct TournamentScores.Score[]",
          "name": "",
          "type": "tuple[]"
        }
      ],
      "stateMutability": "view",
      "type": "function"
    },
    {
      "inputs": [
        {
          "internalType": "uint256",
          "name": "_tournamentId",
          "type": "uint256"
        },
        {
          "internalType": "uint256",
          "name": "_winnerId",
          "type": "uint256"
        },
        {
          "internalType": "uint256",
          "name": "_winnerIdScore",
          "type": "uint256"
        },
        {
          "internalType": "uint256",
          "name": "_loserId",
          "type": "uint256"
        },
        {
          "internalType": "uint256",
          "name": "_loserIdScore",
          "type": "uint256"
        }
      ],
      "name": "storeScore",
      "outputs": [],
      "stateMutability": "nonpayable",
      "type": "function"
    },
    {
      "inputs": [
        {
          "internalType": "uint256",
          "name": "",
          "type": "uint256"
        },
        {
          "internalType": "uint256",
          "name": "",
          "type": "uint256"
        }
      ],
      "name": "tournamentScores",
      "outputs": [
        {
          "internalType": "uint256",
          "name": "tournamentId",
          "type": "uint256"
        },
        {
          "internalType": "uint256",
          "name": "winnerId",
          "type": "uint256"
        },
        {
          "internalType": "uint256",
          "name": "winnerIdScore",
          "type": "uint256"
        },
        {
          "internalType": "uint256",
          "name": "loserId",
          "type": "uint256"
        },
        {
          "internalType": "uint256",
          "name": "loserIdScore",
          "type": "uint256"
        }
      ],
      "stateMutability": "view",
      "type": "function"
    }
  ],
  "bytecode": "0x608060405234801561001057600080fd5b5061055c806100206000396000f3fe608060405234801561001057600080fd5b50600436106100415760003560e01c806304527d90146100465780639628341914610076578063fe8195ce146100aa575b600080fd5b610060600480360381019061005b9190610294565b6100c6565b60405161006d91906103e7565b60405180910390f35b610090600480360381019061008b9190610409565b610169565b6040516100a1959493929190610458565b60405180910390f35b6100c460048036038101906100bf91906104ab565b6101bc565b005b6060600080838152602001908152602001600020805480602002602001604051908101604052809291908181526020016000905b8282101561015e57838290600052602060002090600502016040518060a001604052908160008201548152602001600182015481526020016002820154815260200160038201548152602001600482015481525050815260200190600101906100fa565b505050509050919050565b6000602052816000526040600020818154811061018557600080fd5b9060005260206000209060050201600091509150508060000154908060010154908060020154908060030154908060040154905085565b6000808681526020019081526020016000206040518060a00160405280878152602001868152602001858152602001848152602001838152509080600181540180825580915050600190039060005260206000209060050201600090919091909150600082015181600001556020820151816001015560408201518160020155606082015181600301556080820151816004015550505050505050565b600080fd5b6000819050919050565b6102718161025e565b811461027c57600080fd5b50565b60008135905061028e81610268565b92915050565b6000602082840312156102aa576102a9610259565b5b60006102b88482850161027f565b91505092915050565b600081519050919050565b600082825260208201905092915050565b6000819050602082019050919050565b6102f68161025e565b82525050565b60a08201600082015161031260008501826102ed565b50602082015161032560208501826102ed565b50604082015161033860408501826102ed565b50606082015161034b60608501826102ed565b50608082015161035e60808501826102ed565b50505050565b600061037083836102fc565b60a08301905092915050565b6000602082019050919050565b6000610394826102c1565b61039e81856102cc565b93506103a9836102dd565b8060005b838110156103da5781516103c18882610364565b97506103cc8361037c565b9250506001810190506103ad565b5085935050505092915050565b600060208201905081810360008301526104018184610389565b905092915050565b600080604083850312156104205761041f610259565b5b600061042e8582860161027f565b925050602061043f8582860161027f565b9150509250929050565b6104528161025e565b82525050565b600060a08201905061046d6000830188610449565b61047a6020830187610449565b6104876040830186610449565b6104946060830185610449565b6104a16080830184610449565b9695505050505050565b600080600080600060a086880312156104c7576104c6610259565b5b60006104d58882890161027f565b95505060206104e68882890161027f565b94505060406104f78882890161027f565b93505060606105088882890161027f565b92505060806105198882890161027f565b915050929550929590935056fea2646970667358221220fd47914325c8739b1d3ceae95999162f7c13801229ea0e5a138b6046a7d2610864736f6c63430008180033",
  "linkReferences": {},
  "deployedLinkReferences": {}
}